:02000002B0004C
:1040000000400B00BA550B00000006000C00050232
:084010000401B41400000000DB
:04401800E0520B0067
:10401C00034613F8012B002AFBD1181A01387047FC
:10402C0009480A49884208B505D0094A824202D09B
:10403C00121A01F0A5F80748074A0021121A01F0DC
:10404C00ADF8014808BD00BF3CE6032020550B002D
:10405C00A8E60320A8E60320F0E7032070B5074E7E
:10406C00074C00F055FFA41BA4080025AC4200D15E
:10407C0070BD56F8043B98470135F7E7D8540B0050
:10408C00FC540B0000F013B808B500F031F8BDE893
:10409C00084000F0F5BE00F055BB00F05BBB0078AB
:1040AC00B0FA80F04009704701230370704708B5DF
:1040BC0000F060FE4FF4165100F050FE012100207C
:1040CC0000F096FF0121084600F092FF0121032029
:1040DC0000F08EFF0121052000F08AFF012107204E
:1040EC0000F086FFBDE808400121082000F080BFE9
:1040FC0038B50E2000F0A6FFB14C208000F03AFE3F
:10410C000A222188054600F03AFD284600F02BFDD6
:10411C000121002000F07DFF0021012000F079FF3B
:10412C000021032000F075FF0021052000F071FF35
:10413C000021072000F06DFF0021082000F069FF2E
:10414C000E2000F07FFF208080B200F01BFB0021CE
:10415C00084600F05EFF0121084600F05AFF0021DE
:10416C00032000F056FF0021052000F052FF002133
:10417C00072000F04EFF0021082000F04AFF0E201F
:10418C0000F060FF208080B200F0FCFA00210846AD
:10419C0000F03FFF0021012000F03BFF0121032034
:1041AC0000F037FF0021052000F033FF002107202D
:1041BC0000F02FFF0021082000F02BFF0E2000F054
:1041CC0041FF208080B200F0DDFA0021084600F0AB
:1041DC0020FF0021012000F01CFF0021032000F033
:1041EC0018FF0121052000F014FF0021072000F02A
:1041FC0010FF0021082000F00CFF0E2000F022FF21
:10420C00208080B200F0BEFA0021084600F001FFC9
:10421C000021012000F0FDFE0021032000F0F9FE3A
:10422C000021052000F0F5FE0121072000F0F1FE31
:10423C000021082000F0EDFE0E2000F003FF20808E
:10424C0080B200F09FFA0021084600F0E2FE002147
:10425C00012000F0DEFE0021032000F0DAFE002138
:10426C00052000F0D6FE0021072000F0D2FE01212F
:10427C00082000F0CEFE0E2000F0E4FE208080B27C
:10428C0000F080FA0021084600F0C3FE0021012056
:10429C0000F0BFFE0021032000F0BBFE0021052032
:1042AC0000F0B7FE0121072000F0B3FE002108202A
:1042BC0000F0AFFE0E2000F0C5FE208080B200F0B2
:1042CC0061FA0021084600F0A4FE0021012000F054
:1042DC00A0FE0021032000F09CFE0121052000F02F
:1042EC0098FE0021072000F094FE0021082000F029
:1042FC0090FE0E2000F0A6FE208080B200F042FA64
:10430C000021084600F085FE0021012000F081FE0E
:10431C000121032000F07DFE0021052000F079FE34
:10432C000021072000F075FE0021082000F071FE2E
:10433C000E2000F087FE208080B200F023FA0021CE
:10434C00084600F066FE0121084600F062FE0021DE
:10435C00032000F05EFE0021052000F05AFE002133
:10436C00072000F056FE0021082000F052FE0E201F
:10437C0000F068FE208080B200F004FA01210020D9
:10438C0000F047FE0021012000F043FE0021032035
:10439C0000F03FFE0021052000F03BFE002107202D
:1043AC0000F037FE0021082000F033FE0E2000F054
:1043BC0049FE2080BDE83840012000F0E3B900BF81
:1043CC00B4E6032010B5074B074A9A600024C3E9F2
:1043DC000044032000F022F921460120BDE81040E2
:1043EC0000F02CB9A8E603200000FFFF08B5024B33
:1043FC001B685B6C019308BD4802030008B5024BB7
:10440C001B685B68019308BD1802030008B5024BDA
:10441C001B685B69019308BD1802030008B5024BC9
:10442C001B685B68019308BD2C02030008B5024BA6
:10443C001B689B68019308BD2C02030008B5024B56
:10444C001B68DB68019308BD2C02030008B5024B06
:10445C001B681B69019308BD2C02030008B5024BB5
:10446C001B681B6B019308BD2C02030008B5024BA3
:10447C001B681B6A019308BD2802030008B5024B98
:10448C001B685B6A019308BD2802030008B5024B48
:10449C001B689B6A019308BD2802030008B5024BF8
:1044AC001B68DB6A019308BD2802030008B5024BA8
:1044BC001B681B6B019308BD2802030008B5024B57
:1044CC001B685B6B019308BD2802030008B5024B07
:1044DC001B681B6C019308BD2802030008B5024B36
:1044EC001B685B69019308BD6402030008B5024BAD
:1044FC001B689B68019308BD6802030008B5024B5A
:10450C001B68DB68019308BD6802030008B5024B09
:10451C001B68DB69019308BD3002030008B5024B30
:10452C001B681B6A019308BD3002030008B5024BDF
:10453C001B68DB68019308BD3C02030008B5024B05
:10454C001B681B69019308BD3C02030008B5024BB4
:10455C001B685B69019308BD3C02030008B5024B64
:10456C001B689B69019308BD3C02030008B5024B14
:10457C001B68DB69019308BD3C02030008B5024BC4
:10458C001B681B6A019308BD3C02030008B5024B73
:10459C001B689B6A019308BD3C02030008B5024BE3
:1045AC001B681B6C019308BD3C02030008B5024B51
:1045BC001B681B68019308BD4C02030008B5024B35
:1045CC001B685B68019308BD4C02030008B5024BE5
:1045DC001B681B69019308BD4C02030008B5024B14
:1045EC001B685B69019308BD4C02030008B5024BC4
:1045FC001B689B69019308BD4C02030008B5024B74
:10460C001B68DB69019308BD4C02030008B5024B23
:10461C001B681B6A019308BD4C02030008B5024BD2
:10462C001B685B68019308BD2002030008B5024BB0
:10463C001B685B69019308BD2002030008B5024B9F
:10464C001B68DB6A019308BD2002030008B5034B0D
:10465C001B68D3F88830019308BD000020020300CA
:10466C0008B5034B1B68D3F89430019308BD0000C8
:10467C002002030008B5024B1B68DB6B019308BDDD
:10468C004402030008B5024B1B685B68019308BD2C
:10469C004002030008B5024B1B689B68019308BDE0
:1046AC004002030008B5024B1B68DB68019308BD90
:1046BC004002030008B5024B1B681B69019308BD3F
:1046CC004002030008B5024B1B685B69019308BDEF
:1046DC004002030008B5024B1B689B69019308BD9F
:1046EC004002030008B5024B1B68DB69019308BD4F
:1046FC004002030008B5024B1B681B6A019308BDFE
:10470C004002030008B5024B1B681B6B019308BDEC
:10471C004002030008B5024B1B685B6B019308BD9C
:10472C004002030008B5024B1B681B6C019308BDCB
:10473C004002030008B5024B1B685B6C019308BD7B
:10474C004002030008B5024B1B681B68019308BDAF
:10475C001C02030008B5024B1B685B68019308BD83
:10476C001C02030008B5024B1B681B6C019308BDAF
:10477C001C02030008B5024B1B685B6C019308BD5F
:10478C001C0203000021FFF751BF00000248002368
:10479C000360FFF72BBE00BFB8E603200022406881
:1047AC001146FFF7A7BF002240681146FFF7B2BFC2
:1047BC0040680022FFF7A6BF4068002281F001018B
:1047CC00FFF790BF002340681A461946FFF782BFD7
:1047DC00002340681A461946FFF774BF0022406850
:1047EC001146FFF767BF002240681146FFF752BF22
:1047FC00406800220221FFF755BF002340681A468B
:10480C00FFF740BF024B03225A60024A1A607047FE
:10481C00BCE60320FC520B007047F8B50646154663
:10482C000C468F18BC4206D0336814F8011B9B68E9
:10483C0030469847F6E72846F8BD007C0022FFF783
:10484C0015BE007C0021FFF719BE007C0021FFF78C
:10485C001DBE007C0021FFF721BE007C0021FFF76C
:10486C0025BE10B514210446FFF717FC204610BDD9
:10487C0038B5044615464FF47A730022C4E9012377
:10488C00094B2174084623602946FFF71FFEBF30F1
:10489C0008D16B69DB0705D56868FFF75BFFE86833
:1048AC00FFF758FF204638BD38530B00704710B542
:1048BC0018210446FFF7F1FB204610BDF0B5037D2F
:1048CC00062B8DB00E4600F104074FF0000412D0F9
:1048DC0000F1080515F8011D0A22304600F04FF9C9
:1048EC00AF42044419D0002CF4D02E21304600F0F5
:1048FC0037F90444EEE72F236A4639460A208DF82F
:10490C000040FFF7EBFD6846FFF782FB3368024679
:10491C00DB68694630469847044620460DB0F0BD2A
:10492C0010B5054B0446112240F8043B002100F061
:10493C0035FC204610BD00BF60530B000346074AF0
:10494C0010B543F8042B01F1100251F8044B43F855
:10495C00044B9142F9D10A781A7010BD60530B00C8
:10496C0010B59DF8084044EA032343EA024242EAA8
:10497C00016104234160037510BD000007B5064BAF
:10498C000360CB7800938B784A780978FFF7E8FFBF
:10499C0003B05DF804FB00BF60530B00014B024AEF
:1049AC001A607047C4E603206C530B000023406868
:1049BC001A46FFF767BE406800220221FFF772BE5D
:1049CC00002240681146FFF765BE00224068114680
:1049DC00FFF770BE002340681A461946FFF772BEF7
:1049EC00002340681A461946FFF774BE4068002140
:1049FC00FFF798BE40680021FFF79CBE406800227C
:104A0C0081F00101FFF76EBE40680022FFF77ABE0D
:104A1C00002240681146FFF77DBE00224068114617
:104A2C00FFF768BE2DE9F04395B014460D460746D6
:104A3C00FFF776FF00211C220DA8009100F0AEFBC1
:104A4C0040230C9320466B460CAA0021FFF756FD21
:104A5C00044600284BD1024601216868FFF72AFE64
:104A6C000221804622466868FFF724FE009E81469C
:104A7C002146002E3BD0002939D17368022B03D07C
:104A8C000A2B11D0F669F4E7B8F1000FFAD071696E
:104A9C0006A8043107ADFFF771FF0FCD3C1D0FC405
:104AAC002B6823704146EDE7B9F1000FEAD0746929
:104ABC00102201A800F072FB06238DF8143001AD12
:104ACC0004F108031834186859682A4603C20833DD
:104ADC00A3421546F7D101A906A807ADFFF72EFF93
:104AEC000FCD3C1D0FC42B6823704946CAE70098B4
:104AFC00FFF7FCFC384615B0BDE8F083024B034AC7
:104B0C001A6000225A607047C8E6032078530B00E5
:104B1C00F8B506460D468F180024BD420CD03368FC
:104B2C0015F8011B9B6830469847031E01DB1C449B
:104B3C00F3E7002C08BF1C462046F8BD13B504460D
:104B4C00084659B10191FFF763FA23680199DB68B4
:104B5C000246204602B0BDE81040184702B010BD16
:104B6C0003689B68184738B50D210546FFF7F8FF19
:104B7C000A2104462846FFF7F3FF204438BD30B520
:104B8C008BB00023012A8DF8243098BF0A2209AC7F
:104B9C000D46B1FBF2F101FB125303F0FF03092B9D
:104BAC0094BF30333733DBB2AA4204F8013DEFD95E
:104BBC002146FFF7C3FF0BB030BD0000014B0022B4
:104BCC009A607047D0E6032010B504460846217061
:104BDC00FFF79CFC00236360204610BD054B0222AE
:104BEC001A60054B054A9A600020C3E90000FFF7E4
:104BFC0015BD00BFECE60320E0E603200000FFFF3C
:104C0C00024B1A68024B1A60704700BF3CE6032047
:104C1C00F0E6032070474174704708B5007CFFF73D
:104C2C00B5FC20EAE07008BD08B5007CFFF786FCF7
:104C3C0020EAE07008BD08B5007CFFF78FFC40EA65
:104C4C00E07008BD08B5007CFFF780FC40EAE0701E
:104C5C0008BD007CFFF78ABC37B5457C04462DB1F6
:104C6C00207C03B0BDE83040FFF760BC007C0191B4
:104C7C00FFF78CFC00280199F2DC284603B030BD0C
:104C8C0010B514210446FFF708FA204610BD0000A9
:104C9C0010B54FF47A730446084611460022C4E955
:104CAC000123044B2360012320746374FFF776FC0B
:104CBC00204610BDD0530B004174704770477047AD
:104CCC0008B50021007CFFF791FC40EAE07008BDBC
:104CDC0008B50121007CFFF789FC40EAE07008BDB3
:104CEC0008B5007CFFF77AFC20EAE07008BD08B537
:104CFC00007CFFF76BFC20EAE07008BD13B504469E
:104D0C00007C0191FFF76AFC0028019901DC607CB2
:104D1C0020B1207CFFF772FC20EAE07002B010BDDD
:104D2C00007CFFF773BC10B514210446FFF7B5F9EE
:104D3C00204610BD10B54FF47A7304460846002186
:104D4C00C4E90113044B23600123207463741146DE
:104D5C00FFF72CFC204610BD00540B00007C0022F9
:104D6C00FFF72CBC10B514220446002100F016FAF3
:104D7C00204610BD10B50F4C88B003A8FFF7F2FF0A
:104D8C002178BFF35B8F11F001010FD12046019107
:104D9C00FFF785F9019948B103AA0748FFF7CAFF45
:104DAC002046FFF781F9054800F0E4F9024808B005
:104DBC0010BD00BFF4E60320F8E60320C94C0B003D
:104DCC00002240681146FFF775BC0022406811466E
:104DDC00FFF790BC002240681146FFF79BBC40686F
:104DEC000022FFF78FBC4068002281F00101FFF721
:104DFC0079BC002340681A461946FFF76BBC0023A8
:104E0C0040681A461946FFF75DBC002240681146FF
:104E1C00FFF740BC406800220221FFF743BC00238F
:104E2C0040681A46FFF72EBC024B04225A60024A15
:104E3C001A6070470CE7032030540B00014B1860CC
:104E4C00704700BF40E6032008B50B4B43B1FFF79A
:104E5C0091FF03681B699847002801DDAFF30080C0
:104E6C00064B43B100F060F903681B6998470028B2
:104E7C0001DDAFF3008008BD000000000000000061
:104E8C0008B5FFF7E1FFFFF7C1FA014B186008BD49
:104E9C0028E703200548064A064908B5121A00F00F
:104EAC006FF9054B054A1A6008BD00BF00F40320DA
:104EBC0004F403208C550B0000F403201E1C279ACD
:104ECC0007B5002300931A466FF07701FFF7C8FB74
:104EDC0003B05DF804FB000007B543880A2B08D02B
:104EEC00502B0BD1094B1B684BB103B05DF804EB95
:104EFC001847FFF7E5FF03B05DF804FB00230093B0
:104F0C001A466FF07701FFF7ABFBF4E718E70320C5
:104F1C0010B512480021FFF72DFC114B1A68114BEC
:104F2C009A42114B0CBF012200221A7001D0FFF7DC
:104F3C00B1FFFFF763FA044600F038F90B4B13B1DD
:104F4C002046AFF3008000210848FFF793FBBDE833
:104F5C00104007480021FFF779BB00BF494E0B00FA
:104F6C0000F403201E1C279A14E703200000000005
:104F7C00E54E0B00232813B502D9002002B010BD5A
:104F8C00A0F10B03022B1AD8174C2178BFF35B8FBF
:104F9C0011F001010BD120460191FFF780F8019926
:104FAC0028B11248FFF710FE2046FFF77DF80F4B93
:104FBC001878FFF7B3FA0028DFD10120DEE70128CB
:104FCC0009D800F071F80021007CFFF777FA80F027
:104FDC000100C0B2D2E709380128EED800F0A4F8DD
:104FEC00007CFFF7CBFAF2E71CE7032020E7032055
:104FFC00232838B504460D460AD8FF2908D0FFF7F8
:10500C00B9FF28B129462046BDE83840FFF70EBA53
:10501C0038BD38B504460D46FFF710FAFF2810D0FE
:10502C00062804D84D2323FA00F0C30709D42046E0
:10503C00FFF7A0FF28B129462046BDE83840FFF70E
:10504C0005BA38BD0D2810B504469CBF0E34A4B269
:10505C002046FFF78FFF50B103212046FFF7DEF902
:10506C00032804D12046BDE81040FFF7F7B9002013
:10507C0010BD704738B50A4B0360012304464361E9
:10508C000849202000F074F8202560600549A560CF
:10509C00284600F06DF8C4E90305204638BD00BF72
:1050AC001800010064540B0030B50E4D2978BFF385
:1050BC005B8F11F0010487B011D12846FEF7EFFF8A
:1050CC0068B16846FFF7D6FF6A4621460648FFF7E7
:1050DC00CFFB2846FEF7E8FF044800F04BF80248E7
:1050EC0007B030BD2CE7032030E703207F500B00C6
:1050FC007047000038B5044614252A46002100F0FC
:10510C004DF825804025074925812846258200F049
:10511C002FF804496060284600F02AF8E060204629
:10512C0038BD00BF64540B0030B50E4D2978BFF369
:10513C005B8F11F0010487B011D12846FEF7AFFF49
:10514C0068B101A8FFF7D6FF01AA21460648FFF770
:10515C009FFD2846FEF7A8FF044800F00BF8024814
:10516C0007B030BD44E7032048E70320FD500B0097
:10517C00FEF791BF002301461A46184600F044B8CA
:10518C000A44914200F1FF3300D1704710B511F879
:10519C00014B03F8014F9142F9D110BD0244034673
:1051AC00934200D1704703F8011BF9E738B5104B57
:1051BC001D68AB6B0446B3B91820FFF7C3FA02465F
:1051CC00A86320B90B4B0C484221FFF7CBFA0B49D3
:1051DC000B4BC0E900130B4B83600B238381002125
:1051EC000120C2E90401AB6B00221C615A6138BD7D
:1051FC0040E6032065540B007C540B000E33CDAB02
:10520C0034126DE6ECDE05002DE9F843DFF8B880CA
:10521C000646D8F800001F460D46914600F056F899
:10522C00254B1C6834B9254C1C60254B13B11B68ED
:10523C00C4F8883063681F2B07DDD8F8000000F035
:10524C0047F84FF0FF30BDE8F8834EB3D4F8880030
:10525C0088B91C4B23B9D8F8000000F038F8F0E7F7
:10526C004FF48470FFF76EFA0028F4D00023C0E9E5
:10527C004033C4F88800636840F8239001229A40B8
:10528C0000EB8301D0F800311343C0F80031022E3B
:10529C00C1F8807002BFD0F804311343C0F8043158
:1052AC006368D8F800005A1C0233626044F823503B
:1052BC0000F00EF80020C6E7E8E703205CE70320C7
:1052CC000000000051470B00A4E603207047704714
:1052DC00704700002D400B0069400B0091400B0003
:1052EC0095400B00000000000000000000000000D2
:1052FC0007480B00FD470B00F3470B00E9470B0079
:10530C00DD470B00D1470B00F9490B00014A0B009C
:10531C00C5470B00BD470B00B3470B00A9470B005B
:10532C00314A0B00000000000000000025480B0073
:10533C006F480B0047480B0027480B004F480B00E9
:10534C0057480B005F480B0067480B00000000003B
:10535C0000000000C9480B00B9480B00BB480B000B
:10536C00617070000000000000000000B9490B00E3
:10537C00C3490B00CD490B00D7490B00E1490B0089
:10538C00ED490B00F9490B00014A0B00094A0B00CF
:10539C00154A0B001D4A0B00274A0B00314A0B0023
:1053AC0025592D256D2D25645425483A254D3A2532
:1053BC0053257A0061736374696D65000000000009
:1053CC0000000000214C0B008D4C0B00654C0B00B9
:1053DC001D4B0B00354C0B00514C0B00434C0B0080
:1053EC005F4C0B00234C0B00274C0B000000000003
:1053FC0000000000CB4C0B00334D0B00094D0B0093
:10540C001D4B0B00FB4C0B00CD4C0B00DD4C0B0073
:10541C002D4D0B00ED4C0B00C54C0B00000000009B
:10542C00000000002B4E0B00214E0B00174E0B0002
:10543C00CD4D0B000B4E0B00FF4D0B00F9490B0033
:10544C00014A0B00F34D0B00EB4D0B00E14D0B0033
:10545C00D74D0B00314A0B00005245454E54206D80
:10546C00616C6C6F63207375636365656465640060
:10547C002F746D702F6A656E6B696E732D47434385
:10548C002D31302D706970656C696E652D34385F07
:10549C0032303230313132345F31363036313830AF
:1054AC003633392F7372632F6E65776C69622F6E8A
:1054BC0065776C69622F6C6962632F7374646C69B5
:1054CC00622F72616E642E6300000000D1430B00EA
:1054DC0099470B0011480B00A9490B00094B0B0015
:1054EC00C94B0B00E94B0B000D4C0B00354E0B0060
:1054FC00040000001400000003000000474E55009B
:10550C00071B1DE7499BECB7B9FEFC1A8C167FFEF6
:04551C0091E3D792AE
:10552000C0530B0044E60320000000000000000010
:10553000000000000000000000000000000000006B
:10554000000000000000000000000000000000005B
:10555000000000000000000000000000000000004B
:10556000000000000000000000000000000000003B
:10557000000000000000000000000000000000002B
:0C5580000000000000000000ECE7032029
:04558C00000000001B
:1055960000000102030405060708090A0B0C0D0E9C
:1055A6000F101112131415161718191A1B1C1D1E8D
:0455B6001F2028008A
:0455BA0078563412D9
:04000003B000401CED
:00000001FF
